{
    "contractName": "HashFunction",
    "abi": [
        {
            "inputs": [
                {
                    "internalType": "string",
                    "name": "_rno",
                    "type": "string"
                },
                {
                    "internalType": "uint256[]",
                    "name": "_data",
                    "type": "uint256[]"
                }
            ],
            "name": "checkMsHash",
            "outputs": [
                {
                    "internalType": "bool",
                    "name": "",
                    "type": "bool"
                }
            ],
            "stateMutability": "view",
            "type": "function"
        },
        {
            "inputs": [
                {
                    "internalType": "string",
                    "name": "_rno",
                    "type": "string"
                },
                {
                    "internalType": "uint256[]",
                    "name": "_data",
                    "type": "uint256[]"
                }
            ],
            "name": "createMarksheet",
            "outputs": [],
            "stateMutability": "nonpayable",
            "type": "function"
        },
        {
            "inputs": [
                {
                    "internalType": "string",
                    "name": "_rno",
                    "type": "string"
                },
                {
                    "internalType": "uint256",
                    "name": "_tmarks",
                    "type": "uint256"
                }
            ],
            "name": "getHash",
            "outputs": [
                {
                    "internalType": "uint256",
                    "name": "",
                    "type": "uint256"
                }
            ],
            "stateMutability": "pure",
            "type": "function"
        },
        {
            "inputs": [
                {
                    "internalType": "uint256[]",
                    "name": "_data",
                    "type": "uint256[]"
                }
            ],
            "name": "getTotalSum",
            "outputs": [
                {
                    "internalType": "uint256",
                    "name": "",
                    "type": "uint256"
                }
            ],
            "stateMutability": "pure",
            "type": "function"
        },
        {
            "inputs": [
                {
                    "internalType": "string",
                    "name": "",
                    "type": "string"
                }
            ],
            "name": "hashTable",
            "outputs": [
                {
                    "internalType": "uint256",
                    "name": "",
                    "type": "uint256"
                }
            ],
            "stateMutability": "view",
            "type": "function"
        }
    ],
    "bytecode": "608060405234801561001057600080fd5b5061053c806100206000396000f3fe608060405234801561001057600080fd5b50600436106100575760003560e01c80631934779c1461005c578063530004ba146100855780635aa40e3e146100a5578063c074da24146100b8578063e5c761f4146100cb575b600080fd5b61006f61006a36600461032d565b6100e0565b60405161007c9190610474565b60405180910390f35b610098610093366004610360565b6100fd565b60405161007c9190610469565b61006f6100b33660046102f2565b610143565b61006f6100c63660046103c1565b6101a0565b6100de6100d9366004610360565b6101d4565b005b805160208183018101805160008252928201919093012091525481565b600061010c836100c684610143565b60008460405161011c919061043d565b90815260200160405180910390205414156101395750600161013d565b5060005b92915050565b60008060005b83518110156101995783818151811061017257634e487b7160e01b600052603260045260246000fd5b60200260200101518261018591906104a7565b915080610191816104bf565b915050610149565b5092915050565b600082826040516020016101b5929190610450565b60408051601f1981840301815291905280516020909101209392505050565b6101e1826100c683610143565b6000836040516101f1919061043d565b908152604051908190036020019020555050565b600082601f830112610215578081fd5b8135602067ffffffffffffffff821115610231576102316104f0565b80820261023f82820161047d565b838152828101908684018388018501891015610259578687fd5b8693505b8584101561027b57803583526001939093019291840191840161025d565b50979650505050505050565b600082601f830112610297578081fd5b813567ffffffffffffffff8111156102b1576102b16104f0565b6102c4601f8201601f191660200161047d565b8181528460208386010111156102d8578283fd5b816020850160208301379081016020019190915292915050565b600060208284031215610303578081fd5b813567ffffffffffffffff811115610319578182fd5b61032584828501610205565b949350505050565b60006020828403121561033e578081fd5b813567ffffffffffffffff811115610354578182fd5b61032584828501610287565b60008060408385031215610372578081fd5b823567ffffffffffffffff80821115610389578283fd5b61039586838701610287565b935060208501359150808211156103aa578283fd5b506103b785828601610205565b9150509250929050565b600080604083850312156103d3578182fd5b823567ffffffffffffffff8111156103e9578283fd5b6103f585828601610287565b95602094909401359450505050565b60008151815b81811015610424576020818501810151868301520161040a565b818111156104325782828601525b509290920192915050565b60006104498284610404565b9392505050565b600061045c8285610404565b9283525050602001919050565b901515815260200190565b90815260200190565b60405181810167ffffffffffffffff8111828210171561049f5761049f6104f0565b604052919050565b600082198211156104ba576104ba6104da565b500190565b60006000198214156104d3576104d36104da565b5060010190565b634e487b7160e01b600052601160045260246000fd5b634e487b7160e01b600052604160045260246000fdfea2646970667358221220944ccb796e96f11eff7a808b500e53513ee2f55b6f5bcff1b39b3dfdc86e495664736f6c63430008000033",
    "sourcePath": "/home/ubuntu/work/Project/contracts/HashFunction.sol",
    "compiler": {
        "name": "solc",
        "version": "0.8.0+commit.c7dfd78e"
    },
    "functionHashes": {
        "checkMsHash(string,uint256[])": "530004ba",
        "createMarksheet(string,uint256[])": "e5c761f4",
        "getHash(string,uint256)": "c074da24",
        "getTotalSum(uint256[])": "5aa40e3e",
        "hashTable(string)": "1934779c"
    },
    "gasEstimates": {
        "creation": {
            "codeDepositCost": "268000",
            "executionCost": "306",
            "totalCost": "268306"
        },
        "external": {
            "checkMsHash(string,uint256[])": "infinite",
            "createMarksheet(string,uint256[])": "infinite",
            "getHash(string,uint256)": "infinite",
            "getTotalSum(uint256[])": "infinite",
            "hashTable(string)": "infinite"
        }
    }
}