{
  "contractName": "HashFunction",
  "abi": [
    {
      "inputs": [
        {
          "internalType": "string",
          "name": "",
          "type": "string"
        }
      ],
      "name": "hashTable",
      "outputs": [
        {
          "internalType": "uint256",
          "name": "",
          "type": "uint256"
        }
      ],
      "stateMutability": "view",
      "type": "function"
    },
    {
      "inputs": [
        {
          "internalType": "uint256[]",
          "name": "_data",
          "type": "uint256[]"
        }
      ],
      "name": "getTotalSum",
      "outputs": [
        {
          "internalType": "uint256",
          "name": "",
          "type": "uint256"
        }
      ],
      "stateMutability": "pure",
      "type": "function"
    },
    {
      "inputs": [
        {
          "internalType": "string",
          "name": "_rno",
          "type": "string"
        },
        {
          "internalType": "uint256[]",
          "name": "_data",
          "type": "uint256[]"
        }
      ],
      "name": "createMarksheet",
      "outputs": [],
      "stateMutability": "nonpayable",
      "type": "function"
    },
    {
      "inputs": [
        {
          "internalType": "string",
          "name": "_rno",
          "type": "string"
        },
        {
          "internalType": "uint256",
          "name": "_tmarks",
          "type": "uint256"
        }
      ],
      "name": "getHash",
      "outputs": [
        {
          "internalType": "uint256",
          "name": "",
          "type": "uint256"
        }
      ],
      "stateMutability": "pure",
      "type": "function"
    },
    {
      "inputs": [
        {
          "internalType": "string",
          "name": "_rno",
          "type": "string"
        },
        {
          "internalType": "uint256[]",
          "name": "_data",
          "type": "uint256[]"
        }
      ],
      "name": "checkMsHash",
      "outputs": [
        {
          "internalType": "bool",
          "name": "",
          "type": "bool"
        }
      ],
      "stateMutability": "view",
      "type": "function"
    }
  ],
  "bytecode": "0x608060405234801561001057600080fd5b506108a0806100206000396000f3fe608060405234801561001057600080fd5b50600436106100575760003560e01c80631934779c1461005c578063530004ba1461008c5780635aa40e3e146100bc578063c074da24146100ec578063e5c761f41461011c575b600080fd5b610076600480360381019061007191906103cf565b610138565b6040516100839190610431565b60405180910390f35b6100a660048036038101906100a19190610540565b610166565b6040516100b391906105d3565b60405180910390f35b6100d660048036038101906100d191906105ee565b6101b3565b6040516100e39190610431565b60405180910390f35b61010660048036038101906101019190610637565b610207565b6040516101139190610431565b60405180910390f35b61013660048036038101906101319190610540565b61023d565b005b6000818051602081018201805184825260208301602085012081835280955050505050506000915090505481565b600061017a83610175846101b3565b610207565b60008460405161018a919061070d565b90815260200160405180910390205414156101a857600190506101ad565b600090505b92915050565b60008060005b83518110156101fd578381815181106101d5576101d4610724565b5b6020026020010151826101e89190610782565b915080806101f5906107d8565b9150506101b9565b5080915050919050565b6000828260405160200161021c929190610842565b6040516020818303038152906040528051906020012060001c905092915050565b61024f8261024a836101b3565b610207565b60008360405161025f919061070d565b9081526020016040518091039020819055505050565b6000604051905090565b600080fd5b600080fd5b600080fd5b600080fd5b6000601f19601f8301169050919050565b7f4e487b7100000000000000000000000000000000000000000000000000000000600052604160045260246000fd5b6102dc82610293565b810181811067ffffffffffffffff821117156102fb576102fa6102a4565b5b80604052505050565b600061030e610275565b905061031a82826102d3565b919050565b600067ffffffffffffffff82111561033a576103396102a4565b5b61034382610293565b9050602081019050919050565b82818337600083830152505050565b600061037261036d8461031f565b610304565b90508281526020810184848401111561038e5761038d61028e565b5b610399848285610350565b509392505050565b600082601f8301126103b6576103b5610289565b5b81356103c684826020860161035f565b91505092915050565b6000602082840312156103e5576103e461027f565b5b600082013567ffffffffffffffff81111561040357610402610284565b5b61040f848285016103a1565b91505092915050565b6000819050919050565b61042b81610418565b82525050565b60006020820190506104466000830184610422565b92915050565b600067ffffffffffffffff821115610467576104666102a4565b5b602082029050602081019050919050565b600080fd5b61048681610418565b811461049157600080fd5b50565b6000813590506104a38161047d565b92915050565b60006104bc6104b78461044c565b610304565b905080838252602082019050602084028301858111156104df576104de610478565b5b835b8181101561050857806104f48882610494565b8452602084019350506020810190506104e1565b5050509392505050565b600082601f83011261052757610526610289565b5b81356105378482602086016104a9565b91505092915050565b600080604083850312156105575761055661027f565b5b600083013567ffffffffffffffff81111561057557610574610284565b5b610581858286016103a1565b925050602083013567ffffffffffffffff8111156105a2576105a1610284565b5b6105ae85828601610512565b9150509250929050565b60008115159050919050565b6105cd816105b8565b82525050565b60006020820190506105e860008301846105c4565b92915050565b6000602082840312156106045761060361027f565b5b600082013567ffffffffffffffff81111561062257610621610284565b5b61062e84828501610512565b91505092915050565b6000806040838503121561064e5761064d61027f565b5b600083013567ffffffffffffffff81111561066c5761066b610284565b5b610678858286016103a1565b925050602061068985828601610494565b9150509250929050565b600081519050919050565b600081905092915050565b60005b838110156106c75780820151818401526020810190506106ac565b838111156106d6576000848401525b50505050565b60006106e782610693565b6106f1818561069e565b93506107018185602086016106a9565b80840191505092915050565b600061071982846106dc565b915081905092915050565b7f4e487b7100000000000000000000000000000000000000000000000000000000600052603260045260246000fd5b7f4e487b7100000000000000000000000000000000000000000000000000000000600052601160045260246000fd5b600061078d82610418565b915061079883610418565b9250827fffffffffffffffffffffffffffffffffffffffffffffffffffffffffffffffff038211156107cd576107cc610753565b5b828201905092915050565b60006107e382610418565b91507fffffffffffffffffffffffffffffffffffffffffffffffffffffffffffffffff82141561081657610815610753565b5b600182019050919050565b6000819050919050565b61083c61083782610418565b610821565b82525050565b600061084e82856106dc565b915061085a828461082b565b602082019150819050939250505056fea26469706673582212200ff611dc8d24ce09757dd189acc3a6e63c95f59f38e5d34526f846e977a2925d64736f6c634300080b0033",
  "immutableReferences": {},
  "source": "// SPDX-License-Identifier: MIT\npragma solidity ^0.8.0;\n\ncontract HashFunction {\n\n    mapping(string => uint256) public hashTable;\n\n    function getTotalSum(uint[] memory _data) public pure returns(uint) {\n    uint tmarks;\n       for (uint256 i = 0; i < _data.length; i++) {\n            tmarks += _data[i];\n        } \n       return tmarks; \n   }\n    function createMarksheet(string memory _rno,uint[] memory _data) public {\n      hashTable[_rno] = getHash(_rno,getTotalSum(_data));\n   }\n\n    function getHash(string memory _rno ,uint _tmarks) public pure returns (uint){\n        return uint(keccak256(abi.encodePacked(_rno,_tmarks)));\n   }\n\n   function checkMsHash(string memory _rno,uint[] memory _data) public view returns (bool){\n\n         if ( hashTable[_rno] == getHash(_rno,getTotalSum(_data))) \n         {\n             return true;\n         } \n         else\n          {\n          return false;\n          }\n   }\n\n}",
  "sourcePath": "/home/ubuntu/work/Project/contracts/HashFunction.sol",
  "compiler": {
    "name": "solc",
    "version": "0.8.11+commit.d7f03943.Emscripten.clang"
  },
  "schemaVersion": "3.4.3",
  "updatedAt": "2022-02-04T10:52:20.089Z",
  "devdoc": {
    "kind": "dev",
    "methods": {},
    "version": 1
  },
  "userdoc": {
    "kind": "user",
    "methods": {},
    "version": 1
  }
}